:100000009BC00000B4C00000B2C00000B0C000003F
:10001000AEC00000ACC00000AAC00000A8C0000034
:10002000A6C00000A4C0000003C30000C8C30000B5
:100030009EC000009CC000009AC0000098C0000054
:1000400096C0000094C0000092C0000090C0000064
:100050008EC000008CC000008AC0000088C0000074
:1000600086C0000084C0000082C0000080C0000084
:100070007EC000007CC000007AC0000078C0000094
:1000800076C0000074C0000072C0000070C00000A4
:100090006EC000006CC000006AC0000068C00000B4
:1000A00066C0000064C0000062C0000012011001C0
:1000B00002000008EB0344200100010200010902D4
:1000C0003E00020100C032090400000102020100EA
:1000D000052400100104240206052406000107057A
:1000E00082030800FF09040100020A00000007055E
:1000F0000402100000070583021000000403090435
:1001000018034400650061006E0020004300610098
:100110006D0065007200610000001C034C0055007A
:1001200046004100200043004400430020004400FA
:1001300065006D006F00000011241FBECFEFDAE0F4
:10014000DEBFCDBF11E0A0E0B1E0E8E9FFE002C012
:1001500005900D92A233B107D9F711E0A2E3B1E007
:1001600001C01D92AC34B107E1F7D8D013C748CF16
:10017000009799F1209126013091270140912801A3
:1001800050912901211531054105510531F123E037
:100190002093E900DC010D900020E9F7BD016150DA
:1001A0007040681B790B40E050E07CD44091F30034
:1001B0008091F2009091E8009E779093E800342FB0
:1001C00020E090E0822B932B8031910531F4FED119
:1001D0008091E8008E778093E80084E08093E900C6
:1001E0008091E80082FF05C08091E8008B778093C2
:1001F000E8000895EF92FF920F931F93CF93DF9340
:10020000C3E0D0E060E070E0CB01EE24F62E072FD3
:10021000182FDED5660F771F881F991F6E297F293B
:10022000802B912B219789F760933B0170933C01C0
:1002300080933D0190933E01DF91CF911F910F91EB
:10024000FF90EF900895EF92FF920F931F93CF933B
:1002500025B181E090E00090320102C0880F991F23
:100260000A94E2F7282B25B9E0903B01F0903C017D
:1002700000913D0110913E01C7E161E070E021E095
:1002800030E040E050E0E5B1CB010090320102C027
:10029000880F991F0A94E2F780958E2385B9DA01B9
:1002A000C9010C2E04C0880F991FAA1FBB1F0A94F6
:1002B000D2F78E219F21A023B123FB0100902401BE
:1002C00002C0EE0FFF1F0A94E2F70097A105B105E7
:1002D00021F085B18E2B85B904C085B1E095E82366
:1002E000E5B9E5B1CB010090320102C0880F991F3A
:1002F0000A94E2F7E82BE5B9C15028F625B18095BC
:10030000822385B98FEC97E00197F1F700C00000D8
:10031000CF911F910F91FF90EF90089580E091E0B1
:1003200027DF44B181E090E09C010090320102C0DF
:10033000220F331F0A94E2F70090240102C0880FB5
:10034000991F0A94E2F7822B842B84B961E070E054
:1003500080E090E040D510923B0110923C01109259
:100360003D0110923E016FDF80E090E0AFEFB0E022
:1003700080933B0190933C01A0933D01B0933E01DB
:1003800080E09FEFA0E0B0E080933F0190934001B8
:10039000A0934101B09342018FEF90E0A0E0B0E064
:1003A0008093430190934401A0934501B09346018B
:1003B00080E090E0A1E0B0E0809347019093480195
:1003C000A0934901B0934A0180E090E0A0E8B0E03A
:1003D00080934B0190934C01A0934D01B0934E013B
:1003E00032DF8FEF97EAA1E681509040A040E1F71D
:1003F00000C00000FFDE80E191E0BADE88E190E01D
:1004000064E371E040E150E0EFD4B2DE82E291E0DB
:10041000AFDE19DF8FEF9EE9A4E281509040A0404B
:10042000E1F7E6CF923029F0933041F09130F9F4C2
:1004300019C02EE330E0EEEBF0E01DC0813049F052
:10044000813018F0823099F408C0ECEFF0E024918C
:1004500007C0E0E0F1E0249103C0EAE1F1E024917B
:1004600030E009C022E130E0ECEAF0E004C020E036
:1004700030E0E0E0F0E0DA011196FC93EE93C90180
:1004800008959BB18095906489238BB9089580E08D
:10049000F8CF80E4F6CFCF93DF9382E061EC42E0C7
:1004A00061D0D82F83E061E842E15CD0C82F84E0BE
:1004B00060E842E157D01092260110922701109275
:1004C0002801109229012D2F30E04C2F50E02423D9
:1004D00035232170307090E0282339232115310510
:1004E00011F080E001C080E4CCDFDF91CF9108956E
:1004F00080914501813229F0823249F1803289F5BB
:1005000012C080914401813A61F58091E800877FB3
:100510008093E80086E291E067E070E00AD3809182
:10052000E8008B7711C0809144018132D1F4809131
:10053000E800877F8093E80086E291E067E070E062
:10054000C1D38091E8008E778093E8000895809170
:100550004401813231F48091E800877F8093E80084
:1005600014C008958093E900EBEEF0E08081816093
:100570008083EDEEF0E010826093EC004083809188
:10058000EE00881F8827881F08958091440187FF07
:1005900013C004C0809143018823B9F08091E80022
:1005A00082FFF8CF8091E8008B778093E800089570
:1005B00080914301882349F08091E80080FFF8CFC3
:1005C0008091E8008E778093E80008958091E400A0
:1005D0009091E50044E62091EC0020FF05C02091B9
:1005E000E80020FF05C01AC02091E80022FD16C0D7
:1005F000209143012223A1F02530A1F02091EB00AE
:1006000025FD12C02091E4003091E500281739073C
:1006100011F3442359F04150C901DDCF80E0089522
:1006200082E0089583E0089581E0089584E00895CC
:100630001F920F920FB60F9211242F933F934F9357
:100640005F936F937F938F939F93AF93BF93EF933A
:10065000FF938091DA0080FF15C08091D80080FF61
:1006600011C08091DA008E7F8093DA008091D900EA
:1006700080FF05C081E08093430109DF03C0109231
:10068000430107DF8091E10080FF1DC08091E200FF
:1006900080FF19C08091E1008E7F8093E1008091FE
:1006A000E2008E7F8093E2008091E200806180937F
:1006B000E2008091D80080628093D80019BC85E068
:1006C00080934301EED18091E10084FF2EC08091A0
:1006D000E20084FF2AC080E189BD89B5826089BDBE
:1006E00009B400FEFDCF8091D8008F7D8093D800A3
:1006F0008091E1008F7E8093E1008091E2008F7E07
:100700008093E2008091E20081608093E20080911A
:100710004101882321F48091E30087FF02C084E037
:1007200001C081E080934301BCD18091E10083FF4F
:1007300027C08091E20083FF23C08091E100877F82
:100740008093E10082E08093430110924101809107
:10075000E1008E7F8093E1008091E2008E7F8093A4
:10076000E2008091E20080618093E20080E060E03E
:1007700042E0F8DE8091F00088608093F00091D133
:100780008091E10082FF0AC08091E20082FF06C0F2
:100790008091E1008B7F8093E10083D1FF91EF9105
:1007A000BF91AF919F918F917F916F915F914F9189
:1007B0003F912F910F900FBE0F901F9018951F9291
:1007C0000F920FB60F921124EF92FF920F931F9387
:1007D0002F933F934F935F936F937F938F939F9349
:1007E000AF93BF93EF93FF93DF93CF930F92CDB768
:1007F000DEB789EEE82EF12CF70180818770108238
:1008000000EF10E0F8019081977F908378948983BE
:1008100022D0F894F7011082F801908198609083BB
:100820008981F70180830F90CF91DF91FF91EF9144
:10083000BF91AF919F918F917F916F915F914F91F8
:100840003F912F911F910F91FF90EF900F900FBE4E
:100850000F901F9018950F931F93DF93CF9300D0A5
:10086000CDB7DEB7E4E4F1E08091F100819381E05F
:10087000EC34F807C9F780914401209145012530F7
:1008800009F484C0263040F42130A1F1213070F009
:10089000233009F0F0C02EC0283009F4BDC0293043
:1008A00009F4CCC0263009F0E6C096C0803821F0AB
:1008B000823809F0E0C008C080913F01909140016A
:1008C000992371F082600CC08091480187708093F9
:1008D000E9009091EB0081E095FF80E01092E90043
:1008E0009091E800977F9093E8008093F100109238
:1008F000F1009DC0882319F0823009F0BCC090E05F
:100900008F719070009729F08230910509F0B4C082
:100910000BC080914601813009F0AEC0233009F050
:1009200080E0809340012CC080914601882341F5EE
:1009300020914801277009F49FC02093E90080911D
:10094000EB0080FF1DC080914501833021F4809130
:10095000EB00806213C08091EB0080618093EB001C
:1009600081E090E002C0880F991F2A95E2F78093FA
:10097000EA001092EA008091EB0088608093EB001F
:100980001092E9008091E800877F54C0882309F025
:1009900072C0109146011F770FB7F8948091E8005C
:1009A000877F8093E800F1DD8091E80080FFFCCF35
:1009B000112311F083E001C082E080934301809114
:1009C000E3008078812B8093E3008091E3008068CE
:1009D0008093E3000FBF50C08058823008F04BC0B6
:1009E000809146019091470160914801AE014F5FAF
:1009F0005F4F18DDBC01009709F43EC08091E8000C
:100A0000877F8093E80089819A81F6D08091E80001
:100A10008B778093E80030C0803869F58091E800DA
:100A2000877F8093E800809141018093F10080915D
:100A3000E8008E778093E800A8DD1EC08823D9F4F3
:100A4000909146019230C0F48091E800877F8093B6
:100A5000E8009093410199DD80914101882321F4C0
:100A60008091E30087FF02C084E001C081E08093B1
:100A7000430111DD01C03CDD8091E80083FF0AC025
:100A80008091EB0080628093EB008091E800877F8B
:100A90008093E8000F900F90CF91DF911F910F91FD
:100AA00008950895AF92BF92DF92EF92FF920F9355
:100AB0001F93DF93CF930F92CDB7DEB7082F5B0163
:100AC0007A01998383DDD82E9981882331F5192FF6
:100AD0001CC08091E80085FD10C08091E8008E77F1
:100AE0008093E800E114F10421F0F70109958130C9
:100AF00081F06CDD882349F00FC0F80181918F01EE
:100B00008093F1000894A108B108A114B10409F779
:100B100004C095E0D92E01C0D82E8D2D0F90CF9115
:100B2000DF911F910F91FF90EF90DF90BF90AF90FA
:100B30000895482F592FFA0180914A0190914B0155
:100B40008617970718F4BC0140E03CC06115710599
:100B5000D9F78091E8008E778093E800F5CF8091F7
:100B60004301882309F444C08530F1F18091E80005
:100B700083FD3CC08091E80082FD30C08091E80098
:100B800080FF20C09091F3008091F200392F20E087
:100B900090E0822B932B06C041914093F10061506D
:100BA000704001966115710519F088309105A0F328
:100BB00041E08830910509F040E08091E8008E77AF
:100BC0008093E8006115710551F6442341F606C093
:100BD00080914301882361F0853061F08091E800C5
:100BE00082FFF6CF80E0089583E0089581E00895C4
:100BF00082E0089583E00895482F592F80914A019B
:100C000090914B018617970718F4BC01E0E040C0B3
:100C100061157105D9F78091E8008E778093E8001F
:100C2000F5CF80914301882309F448C0853009F449
:100C300041C08091E80083FD3FC08091E80082FDC3
:100C400033C08091E80080FF23C09091F300809131
:100C5000F200392F20E090E0822B932B09C0FA019B
:100C60004F5F5F4FE491E093F10061507040019657
:100C70006115710519F08830910588F3E1E088303D
:100C8000910509F0E0E08091E8008E778093E8001C
:100C90006115710531F6EE2321F606C080914301FE
:100CA000882361F0853061F08091E80082FFF6CF03
:100CB00080E0089583E0089581E0089582E008953A
:100CC00083E008956115710559F525C040914301F0
:100CD0004423D1F14530A1F14091E80043FD32C0F9
:100CE0004091E80042FFF2CFE82FF92F07C0809132
:100CF000F1008193CF016150704069F0CF015091B4
:100D0000F3004091F200352F20E050E0422B532BAE
:100D10004115510561F74091E8004B774093E80099
:100D20006115710599F606C080914301882361F031
:100D3000853061F08091E80080FFF6CF80E0089573
:100D400083E0089581E0089582E0089583E00895A6
:100D5000A0E0B0E0EDEAF6E0CCC0EC01688179817A
:100D60008A819B81611571058105910521F464E2F9
:100D700079ED8BE597E02DE133EF41E050E096D03F
:100D800079018A0127EA31E440E050E05CD05B0160
:100D90006C01C801B7012CEE34EF4FEF5FEF53D079
:100DA0009B01AC012A0D3B1D4C1D5D1D57FF04C06E
:100DB0002150304040405048288339834A835B8328
:100DC0005F77B901CA01CDB7DEB7EAE0AEC0C0CFE8
:100DD0008DE291E0BDCF60932D0170932E01809341
:100DE0002F01909330010895FB019F01E894423058
:100DF000BCF04532ACF44A3029F497FB1EF49095D0
:100E000081959F4F642F77273DD0805D8A330CF00A
:100E1000895D8193CB010097A9F716F45DE25193A8
:100E20001082C90100C0DC01FC01672F719177239A
:100E3000E1F7329704C07C916D9370836291AE1795
:100E4000BF07C8F30895629FD001739FF001829F8E
:100E5000E00DF11D649FE00DF11D929FF00D839F49
:100E6000F00D749FF00D659FF00D9927729FB00DE6
:100E7000E11DF91F639FB00DE11DF91FBD01CF01F9
:100E800011240895AA1BBB1B51E107C0AA1FBB1F59
:100E9000A617B70710F0A61BB70B881F991F5A9506
:100EA000A9F780959095BC01CD01089597FB092E77
:100EB00005260ED057FD04D04BD00AD0001C38F4C4
:100EC00050954095309521953F4F4F4F5F4F089576
:100ED000F6F790958095709561957F4F8F4F9F4F56
:100EE00008952F923F924F925F926F927F928F92CE
:100EF0009F92AF92BF92CF92DF92EF92FF920F93A9
:100F00001F93CF93DF93CDB7DEB7CA1BDB0B0FB6B2
:100F1000F894DEBF0FBECDBF09942A88398848886F
:100F20005F846E847D848C849B84AA84B984C88405
:100F3000DF80EE80FD800C811B81AA81B981CE0FFC
:100F4000D11D0FB6F894DEBF0FBECDBFED010895E1
:100F5000A1E21A2EAA1BBB1BFD010DC0AA1FBB1FBD
:100F6000EE1FFF1FA217B307E407F50720F0A21B2F
:100F7000B30BE40BF50B661F771F881F991F1A949C
:100F800069F760957095809590959B01AC01BD01C6
:080F9000CF010895F894FFCF92
:100F98005753323830312054657374204A4947001A
:100FA80061646465642068657820636F6C6F722083
:100FB80023000A000200802500000000080100004C
:020FC800000027
:00000001FF
